{
    "_format": "hh-sol-artifact-1",
    "contractName": "Partnership",
    "sourceName": "contracts/Partnership.sol",
    "abi": [
        {
            "inputs": [
                {
                    "internalType": "address payable[]",
                    "name": "_addresses",
                    "type": "address[]"
                },
                {
                    "internalType": "uint256[]",
                    "name": "_splitRatios",
                    "type": "uint256[]"
                }
            ],
            "stateMutability": "nonpayable",
            "type": "constructor"
        },
        {
            "inputs": [
                {
                    "internalType": "uint256",
                    "name": "",
                    "type": "uint256"
                }
            ],
            "name": "addresses",
            "outputs": [
                {
                    "internalType": "address payable",
                    "name": "",
                    "type": "address"
                }
            ],
            "stateMutability": "view",
            "type": "function"
        },
        {
            "inputs": [],
            "name": "getBalance",
            "outputs": [
                {
                    "internalType": "uint256",
                    "name": "",
                    "type": "uint256"
                }
            ],
            "stateMutability": "view",
            "type": "function"
        },
        {
            "inputs": [
                {
                    "internalType": "uint256",
                    "name": "",
                    "type": "uint256"
                }
            ],
            "name": "splitRatios",
            "outputs": [
                {
                    "internalType": "uint256",
                    "name": "",
                    "type": "uint256"
                }
            ],
            "stateMutability": "view",
            "type": "function"
        },
        {
            "inputs": [],
            "name": "withdraw",
            "outputs": [],
            "stateMutability": "nonpayable",
            "type": "function"
        },
        {
            "stateMutability": "payable",
            "type": "receive"
        }
    ],
    "bytecode": "0x608060405234801561001057600080fd5b50604051611116380380611116833981810160405281019061003291906106ff565b6001825111610076576040517f08c379a000000000000000000000000000000000000000000000000000000000815260040161006d90610820565b60405180910390fd5b81518151146100ba576040517f08c379a00000000000000000000000000000000000000000000000000000000081526004016100b1906108b2565b60405180910390fd5b81600090805190602001906100d092919061033d565b5080600190805190602001906100e79291906103c7565b50610147600180548060200260200160405190810160405280929190818152602001828054801561013757602002820191906000526020600020905b815481526020019060010190808311610123575b505050505061019860201b60201c565b6002819055506101916040518060400160405280601481526020017f436f6e7472616374206973204465706c6f79656400000000000000000000000081525061024760201b60201c565b5050610a8f565b6000806000905060005b835181101561023d5760008482815181106101c0576101bf6108d2565b5b602002602001015111610208576040517f08c379a00000000000000000000000000000000000000000000000000000000081526004016101ff9061094d565b60405180910390fd5b83818151811061021b5761021a6108d2565b5b60200260200101518261022e919061099c565b915080806001019150506101a2565b5080915050919050565b6102e38160405160240161025b9190610a3e565b6040516020818303038152906040527f41304fac000000000000000000000000000000000000000000000000000000007bffffffffffffffffffffffffffffffffffffffffffffffffffffffff19166020820180517bffffffffffffffffffffffffffffffffffffffffffffffffffffffff83818316178352505050506102e660201b60201c565b50565b6103078161030261030a60201b6102eb1761032b60201b60201c565b60201c565b50565b60006a636f6e736f6c652e6c6f679050600080835160208501845afa505050565b61041460201b61030c17819050919050565b8280548282559060005260206000209081019282156103b6579160200282015b828111156103b55782518260006101000a81548173ffffffffffffffffffffffffffffffffffffffff021916908373ffffffffffffffffffffffffffffffffffffffff1602179055509160200191906001019061035d565b5b5090506103c3919061041e565b5090565b828054828255906000526020600020908101928215610403579160200282015b828111156104025782518255916020019190600101906103e7565b5b509050610410919061041e565b5090565b61041c610a60565b565b5b8082111561043757600081600090555060010161041f565b5090565b6000604051905090565b600080fd5b600080fd5b600080fd5b6000601f19601f8301169050919050565b7f4e487b7100000000000000000000000000000000000000000000000000000000600052604160045260246000fd5b61049d82610454565b810181811067ffffffffffffffff821117156104bc576104bb610465565b5b80604052505050565b60006104cf61043b565b90506104db8282610494565b919050565b600067ffffffffffffffff8211156104fb576104fa610465565b5b602082029050602081019050919050565b600080fd5b600073ffffffffffffffffffffffffffffffffffffffff82169050919050565b600061053c82610511565b9050919050565b61054c81610531565b811461055757600080fd5b50565b60008151905061056981610543565b92915050565b600061058261057d846104e0565b6104c5565b905080838252602082019050602084028301858111156105a5576105a461050c565b5b835b818110156105ce57806105ba888261055a565b8452602084019350506020810190506105a7565b5050509392505050565b600082601f8301126105ed576105ec61044f565b5b81516105fd84826020860161056f565b91505092915050565b600067ffffffffffffffff82111561062157610620610465565b5b602082029050602081019050919050565b6000819050919050565b61064581610632565b811461065057600080fd5b50565b6000815190506106628161063c565b92915050565b600061067b61067684610606565b6104c5565b9050808382526020820190506020840283018581111561069e5761069d61050c565b5b835b818110156106c757806106b38882610653565b8452602084019350506020810190506106a0565b5050509392505050565b600082601f8301126106e6576106e561044f565b5b81516106f6848260208601610668565b91505092915050565b6000806040838503121561071657610715610445565b5b600083015167ffffffffffffffff8111156107345761073361044a565b5b610740858286016105d8565b925050602083015167ffffffffffffffff8111156107615761076061044a565b5b61076d858286016106d1565b9150509250929050565b600082825260208201905092915050565b7f4d6f7265207468616e206f6e6520616464726573732073686f756c642062652060008201527f70726f766964656420746f2065737461626c697368206120706172746e65727360208201527f6869700000000000000000000000000000000000000000000000000000000000604082015250565b600061080a604383610777565b915061081582610788565b606082019050919050565b60006020820190508181036000830152610839816107fd565b9050919050565b7f546865206164647265737320616d6f756e7420616e64207468652073706c697460008201527f20726174696f20616d6f756e742073686f756c6420626520657175616c000000602082015250565b600061089c603d83610777565b91506108a782610840565b604082019050919050565b600060208201905081810360008301526108cb8161088f565b9050919050565b7f4e487b7100000000000000000000000000000000000000000000000000000000600052603260045260246000fd5b7f53706c697420726174696f2063616e206e6f742062652030206f72206c657373600082015250565b6000610937602083610777565b915061094282610901565b602082019050919050565b600060208201905081810360008301526109668161092a565b9050919050565b7f4e487b7100000000000000000000000000000000000000000000000000000000600052601160045260246000fd5b60006109a782610632565b91506109b283610632565b92508282019050808211156109ca576109c961096d565b5b92915050565b600081519050919050565b60005b838110156109f95780820151818401526020810190506109de565b60008484015250505050565b6000610a10826109d0565b610a1a8185610777565b9350610a2a8185602086016109db565b610a3381610454565b840191505092915050565b60006020820190508181036000830152610a588184610a05565b905092915050565b7f4e487b7100000000000000000000000000000000000000000000000000000000600052605160045260246000fd5b61067880610a9e6000396000f3fe6080604052600436106100435760003560e01c806312065fe01461004f5780633ccfd60b1461007a5780637ab0d1e814610091578063edf26d9b146100ce5761004a565b3661004a57005b600080fd5b34801561005b57600080fd5b5061006461010b565b604051610071919061032f565b60405180910390f35b34801561008657600080fd5b5061008f610113565b005b34801561009d57600080fd5b506100b860048036038101906100b3919061037b565b610288565b6040516100c5919061032f565b60405180910390f35b3480156100da57600080fd5b506100f560048036038101906100f0919061037b565b6102ac565b60405161010291906103e9565b60405180910390f35b600047905090565b600061011d61010b565b90506000808054905090506000821161016b576040517f08c379a000000000000000000000000000000000000000000000000000000000815260040161016290610461565b60405180910390fd5b6002548210156101b0576040517f08c379a00000000000000000000000000000000000000000000000000000000081526004016101a7906104f3565b60405180910390fd5b60005b8181101561028357600081815481106101cf576101ce610513565b5b9060005260206000200160009054906101000a900473ffffffffffffffffffffffffffffffffffffffff1673ffffffffffffffffffffffffffffffffffffffff166108fc6001838154811061022757610226610513565b5b90600052602060002001546002548661024091906105a0565b61024a91906105d1565b9081150290604051600060405180830381858888f19350505050158015610275573d6000803e3d6000fd5b5080806001019150506101b3565b505050565b6001818154811061029857600080fd5b906000526020600020016000915090505481565b600081815481106102bc57600080fd5b906000526020600020016000915054906101000a900473ffffffffffffffffffffffffffffffffffffffff1681565b60006a636f6e736f6c652e6c6f679050600080835160208501845afa505050565b610314610613565b565b6000819050919050565b61032981610316565b82525050565b60006020820190506103446000830184610320565b92915050565b600080fd5b61035881610316565b811461036357600080fd5b50565b6000813590506103758161034f565b92915050565b6000602082840312156103915761039061034a565b5b600061039f84828501610366565b91505092915050565b600073ffffffffffffffffffffffffffffffffffffffff82169050919050565b60006103d3826103a8565b9050919050565b6103e3816103c8565b82525050565b60006020820190506103fe60008301846103da565b92915050565b600082825260208201905092915050565b7f496e73756666696369656e742062616c616e6365000000000000000000000000600082015250565b600061044b601483610404565b915061045682610415565b602082019050919050565b6000602082019050818103600083015261047a8161043e565b9050919050565b7f42616c616e63652073686f756c642062652067726561746572207468616e207460008201527f686520746f74616c2073706c697420726174696f730000000000000000000000602082015250565b60006104dd603583610404565b91506104e882610481565b604082019050919050565b6000602082019050818103600083015261050c816104d0565b9050919050565b7f4e487b7100000000000000000000000000000000000000000000000000000000600052603260045260246000fd5b7f4e487b7100000000000000000000000000000000000000000000000000000000600052601260045260246000fd5b7f4e487b7100000000000000000000000000000000000000000000000000000000600052601160045260246000fd5b60006105ab82610316565b91506105b683610316565b9250826105c6576105c5610542565b5b828204905092915050565b60006105dc82610316565b91506105e783610316565b92508282026105f581610316565b9150828204841483151761060c5761060b610571565b5b5092915050565b7f4e487b7100000000000000000000000000000000000000000000000000000000600052605160045260246000fdfea264697066735822122031c39416d515e77474fa0a436c561d710ba153eb5e84a1e685a80bdac3e2605864736f6c634300081c0033",
    "linkReferences": {},
    "deployedLinkReferences": {}
}